S010000052544F535F4232362E73726563C3
S11300000C942A000C9447000C9447000C9447006D
S11300100C9447000C9447000C9447000C94640320
S11300200C9447000C9447000C9447000C94470030
S11300300C9447000C9447000C9447000C94470020
S11300400C9447000C9447000C9447000C94470010
S11300500C94470011241FBECFE5D8E0DEBFCDBF0E
S113006010E0A0E6B0E0EAECFFE002C005900D92DB
S1130070AE37B107D9F724E0AEE7B0E001C01D9276
S1130080AC3DB207E1F70E9462070C94E3070C94BD
S11300900000CF93DF93DC01E6E8F0E001C0F90152
S11300A0208131812A173B07D0F382819381AF01EC
S11300B0480F591FA417B50749F412964D915C9146
S11300C01397840F951F93838283DF0112968D917A
S11300D09C911397ED01C80FD91F2C173D07D9F434
S11300E02091840030918500C217D30781F02A81C2
S11300F03B81820F931F13969C938E931297C0811A
S1130100D1818881998111969C938E9307C0119611
S1130110DC93CE9303C011963C932E93AE17BF0786
S113012011F0B183A083DF91CF910895CF92DF9234
S1130130EF92FF920F931F93CF93DF93EC010E94F2
S113014009058091840090918500892B41F5E6E8AA
S1130150F0E0AAE8B0E0B183A08313821282EEE655
S1130160F4E0F0938500E0938400138212821182FC
S1130170108284EE93E013969C938E931297ED93E2
S1130180FC939093810080938000909383008093EC
S1130190820080E090E890937F0080937E00E0905E
S11301A07E00F0907F00C7018C239D23892B09F0EA
S11301B05FC0209709F45FC0AE014C5F5F4F09F444
S11301C05DC000918200109183000417150708F4A4
S11301D058C0C0918600D0918700E6E8F0E002C0E4
S11301E0FE01E9012A813B812417350728F428817F
S11301F0398121153105A1F7809184009091850002
S1130200C817D90709F440C0C080D18084E0C80E63
S1130210D11C88819981918380832A813B81241B0D
S1130220350B2930310550F0CE01840F951FFC01A8
S1130230338322835B834A830E9449008A819B81A2
S1130240081B190B109383000093820020918000F7
S1130250309181000217130720F41093810000935A
S11302608000E82AF92AFB82EA82198218820EC0E9
S1130270C12CD12C0BC0C12CD12C08C0C12CD12C29
S113028005C0C12CD12C02C0C12CD12C0E94B405B4
S1130290C601DF91CF911F910F91FF90EF90DF90F6
S11302A0CF900895CF93DF93009759F1FC013497D1
S11302B02281338140917E0050917F00B9016423F3
S11302C07523672BF1F060817181672BD1F4EF0105
S11302D04095509524233523338322830E940905B6
S11302E020918200309183008A819B81820F931F29
S11302F09093830080938200CE010E9449000E9463
S1130300B405DF91CF910895FC0103969283818314
S11303102FEF3FEF348323839683858390878783EE
S113032010820895FC01118610860895CF93DF93FF
S11303309C01FB01DC011196CD91DC911297D383D2
S1130340C2838C819D81958384838C819D81DC0112
S113035013967C936E9312977D836C8331872087E9
S1130360F90180818F5F8083DF91CF910895CF93CE
S1130370DF93EB01488159814F3F2FEF520721F45E
S1130380FC01A781B0850DC0DC01139601C0DF011B
S11303901296ED91FC9113972081318142175307F6
S11303A0B0F71296ED91FC911397FB83EA83D58302
S11303B0C483BD83AC831396DC93CE931297998741
S11303C08887FC0120812F5F2083DF91CF910895DE
S11303D0CF93DF93FC01A085B185C281D381848151
S11303E095819D838C83C481D581828193819B83F4
S11303F08A8311968D919C911297E817F90731F42D
S11304008481958112969C938E9311971186108600
S11304108C9181508C93DF91CF91089531E1FC014F
S11304203083319722E220833197A3E3A08331976D
S113043060833197708331971082319760E86083CD
S113044031971082319762E06083319763E0608373
S1130450319764E06083319765E06083319766E0AB
S11304606083319767E06083319768E060833197F8
S113047069E06083319760E160833197308331971D
S113048032E13083319733E13083319734E1308383
S1130490319735E13083319736E13083319737E155
S11304A03083319738E13083319739E130833197A4
S11304B030E23083319731E23083319720833197B2
S11304C023E220833197408331975083319726E28A
S11304D02083319727E22083319728E220833197C4
S11304E029E22083319720E32083319721E320837D
S11304F0869708951BBC89EF8ABD8BE08EBD89B7B2
S1130500806189BFA091D404B091D504CD91CDBFB1
S1130510DD91DEBFFF91EF91DF91CF91BF91AF915C
S11305209F918F917F916F915F914F913F912F9107
S11305301F910F91FF90EF90DF90CF90BF90AF90FD
S11305409F908F907F906F905F904F903F902F90EF
S11305501F900F900FBE0F90089581E008950F92A1
S11305600FB6F8940F921F9211242F923F924F923C
S11305705F926F927F928F929F92AF92BF92CF922F
S1130580DF92EF92FF920F931F932F933F934F931A
S11305905F936F937F938F939F93AF93BF93CF9307
S11305A0DF93EF93FF93A091D404B091D5040DB6DB
S11305B00D920EB60D920E949306A091D404B091B0
S11305C0D504CD91CDBFDD91DEBFFF91EF91DF91D9
S11305D0CF91BF91AF919F918F917F916F915F91D7
S11305E04F913F912F911F910F91FF90EF90DF90CA
S11305F0CF90BF90AF909F908F907F906F905F90BF
S11306004F903F902F901F900F900FBE0F90089522
S11306100F920FB6F8940F921F9211242F923F92CB
S11306204F925F926F927F928F929F92AF92BF92FE
S1130630CF92DF92EF92FF920F931F932F933F93EA
S11306404F935F936F937F938F939F93AF93BF93D6
S1130650CF93DF93EF93FF93A091D404B091D5048B
S11306600DB60D920EB60D920E940F0581110E94D7
S11306709306A091D404B091D504CD91CDBFDD9162
S1130680DEBFFF91EF91DF91CF91BF91AF919F9129
S11306908F917F916F915F914F913F912F911F9116
S11306A00F91FF90EF90DF90CF90BF90AF909F900D
S11306B08F907F906F905F904F903F902F901F90FE
S11306C00F900FBE0F9008950E9408031895E091B3
S11306D09C04F0919D048081811107C08FEF9FEFEE
S11306E090937404809373040895E0919C04F091B2
S11306F09D040580F681E02D0680F781E02D82813E
S1130700938190937404809373040895CF93DF933B
S1130710EC01E091D404F091D50493838283809119
S11307207B0490917C04C817D90768F46091D404C1
S11307307091D50480919A0490919B046E5F7F4FD1
S11307400E94B70117C06091D4047091D5048091C0
S11307509C0490919D046E5F7F4F0E94B70180912D
S1130760730490917404C817D90720F4D0937404C7
S1130770C0937304DF91CF9108954F925F926F926B
S11307807F928F929F92AF92BF92CF92DF92EF921D
S1130790FF920F931F93CF93DF934C01EB015A0108
S11307A02901C114D10439F4CA010E9496006C01D4
S11307B0892B09F4EAC088E290E00E9496003C018B
S11307C00097B9F0FC01D08EC78AA50165EA70E0F4
S11307D0C6010E949C07F1E0AF1AB108F3018789B2
S11307E0908DA80EB91E8881818F8881811105C0E2
S11307F014C0C6010E945201C8C0D3015A96FE011A
S113080031969E01285F3F4FEF0181918D9388813E
S1130810882319F02E173F07B9F7F30110A2102F00
S1130820043008F013E0F301168BE3012296CE01A5
S11308300E949201C3010C960E949201F3017186F9
S1130840608684E090E0811B910995878487738A90
S1130850628A13A214A215A216A217A2A201B401BD
S1130860C5010E940E02F30191838083E114F10417
S113087019F0F701718260820FB6F8940F9280919B
S11308807D048F5F80937D048091D4049091D5047E
S1130890892BD1F57092D5046092D40480917D04A3
S11308A0813009F040C080EB94E00E94840189EB20
S11308B094E00E94840182EC94E00E9484018BEC19
S11308C094E00E94840187EA94E00E9484018EE906
S11308D094E00E94840181E994E00E94840188E804
S11308E094E00E9484018EE794E00E94840187EAE8
S11308F094E090939D0480939C048EE994E09093FB
S11309009B0480939A040FC08091790481110BC0D9
S1130910E091D404F091D5048689081720F07092F0
S1130920D5046092D404809175048F5F809375041C
S1130930F30181A3868990917A04981710F4809327
S11309407A0490E09C01220F331F220F331F220FE1
S1130950331F820F931FBE0180559B4F0E94960147
S11309600F900FBE80917904882359F0E091D4044C
S1130970F091D5048689801730F40E94AF0281E09B
S113098005C081E003C081E001C08FEFDF91CF910A
S11309901F910F91FF90EF90DF90CF90BF90AF9099
S11309A09F908F907F906F905F904F900895AF923B
S11309B0BF92CF92DF92EF92FF920F93A12CB12CB2
S11309C0C12CD12CE12CF12C00E020E030E044E6F5
S11309D050E060E670E086E596E00E94BD03813059
S11309E081F4F8948FEF9FEF9093740480937304D1
S11309F081E08093790410927C0410927B040E941D
S1130A007A020F91FF90EF90DF90CF90BF90AF905C
S1130A100895809172048F5F809372040895CF9239
S1130A20DF92EF92FF920F931F93CF93DF93809106
S1130A307204811183C080917B0490917C0401969F
S1130A4090937C0480937B04E0907B04F0907C047E
S1130A50E114F104B9F480919C0490919D042091D7
S1130A609A0430919B0430939D0420939C049093AA
S1130A709B0480939A04809176048F5F809376041C
S1130A800E9467038091730490917404E816F90638
S1130A9010F4D12C59C0D12CCC24C394E0919C04E3
S1130AA0F0919D048081811107C08FEF9FEF909397
S1130AB074048093730448C0E0919C04F0919D04F5
S1130AC00580F681E02DC681D7818A819B81E81655
S1130AD0F90628F4909374048093730435C08E014E
S1130AE00E5F1F4FC8010E94E8018C899D89892BE4
S1130AF021F0CE010C960E94E8018E8990917A042F
S1130B00981710F480937A0490E09C01220F331F0D
S1130B10220F331F220F331F820F931FB8018055FA
S1130B209B4F0E949601E091D404F091D5049E89D4
S1130B308689981708F4B2CFDC2CB0CF8091780462
S1130B408F5F80937804D12C80917704882311F0EF
S1130B50DD24D3948D2DDF91CF911F910F91FF90C0
S1130B60EF90DF90CF900895DF92EF92FF920F9372
S1130B701F93CF93DF930FB6F8940F928091720472
S1130B8081508093720480917204811162C08091BB
S1130B907D04811133C060C0D7011596ED91FC919D
S1130BA01697C681D781CE010C960E94E8018E016A
S1130BB00E5F1F4FC8010E94E8018E8990917A044C
S1130BC0981710F480937A0490E09C01220F331F4D
S1130BD0220F331F220F331F820F931FB80180553A
S1130BE09B4F0E949601E091D404F091D5049E8914
S1130BF08689981758F0D092770408C00F2EF1E92F
S1130C00EF2EF4E0FF2EF02DDD24D394F701808144
S1130C108111C2CF80917804882399F0809178045F
S1130C20882379F0C1E00E940F058111C0937704F5
S1130C3080917804815080937804809178048111A4
S1130C40F2CF80917704813031F40E94AF0281E0C9
S1130C5003C080E001C080E00F900FBEDF91CF9110
S1130C601F910F91FF90EF90DF900895CF93DF9342
S1130C70EC01892BB1F00E94090580917B049091CD
S1130C807C04C80FD91F8091D4049091D504029696
S1130C900E94E801CE010E9486030E94B4058111DE
S1130CA002C00E94AF02DF91CF91089508E814E0DA
S1130CB00F2EF0EBEF2EF4E0FF2EF02D29C00E9452
S1130CC00905D801CC910E94B405CC2309F10FB6D3
S1130CD0F8940F92D8011596ED91FC911697C68160
S1130CE0D781CE0102960E94E80180917D04815053
S1130CF080937D04809187048150809387040F90B2
S1130D000FBE8F89988D0E945201CE010E9452011C
S1130D10809187048111D3CFF70180818230C0F3A1
S1130D200E94AF02F5CF80917204882321F081E004
S1130D308093770408951092770480917A0490E068
S1130D40FC01EE0FFF1FEE0FFF1FEE0FFF1F8E0FB4
S1130D509F1FFC01E055FB4F8081811117C08091DA
S1130D607A04815080937A0480917A0490E0FC01A3
S1130D70EE0FFF1FEE0FFF1FEE0FFF1F8E0F9F1FC3
S1130D80FC01E055FB4F8081882349F380917A046C
S1130D9090E09C01220F331F220F331F220F331FB9
S1130DA0280F391FD901A055BB4F1196ED91FC9125
S1130DB012970280F381E02D1296FC93EE93119723
S1130DC02D543B4FE217F30729F422813381FD01AF
S1130DD032832183FC01EE0FFF1FEE0FFF1FEE0F86
S1130DE0FF1F8E0F9F1FFC01E055FB4F0180F28116
S1130DF0E02D868197819093D5048093D40408953F
S1130E00539A87E689B908955D9BFECF8CB90895FE
S1130E10CF93DF93EC018881882331F021960E94DF
S1130E20040789918111FBCFDF91CF910895CF936E
S1130E30DF93CDB7DEB72A970FB6F894DEBF0FBEA7
S1130E40CDBF4AE050E0BE016F5F7F4F0E94A30711
S1130E50CE0101960E9408072A960FB6F894DEBFC9
S1130E600FBECDBFDF91CF91089585E090E00E9441
S1130E7036068091DA049091DB040E94170785E618
S1130E8090E00E940807F1CF85E090E00E943606CA
S1130E908091D8049091D9040E94170785E690E0C8
S1130EA00E940807F1CF85E090E00E943606809109
S1130EB0D6049091D7040E94170785E690E00E941B
S1130EC00807F1CF0E940007A12CB12CC12CD12C12
S1130ED00F2EFAEDEF2EF4E0FF2EF02D01E020E0CE
S1130EE030E044E650E068E670E085E397E00E9475
S1130EF0BD030F2EF8EDEF2EF4E0FF2EF02D20E0D1
S1130F0030E044E650E06FE670E084E497E00E944D
S1130F10BD030F2EF6EDEF2EF4E0FF2EF02D20E0B2
S1130F2030E044E650E066E770E083E597E00E9435
S1130F30BD030E94D704FFCFDC0101C06D93415073
S1130F405040E0F708954532510520F4423010F046
S1130F500C94AE07FB011082CB010895BB274A30E5
S1130F6031F4992322F4BDE2909581959F4F0C941E
S1130F70BA07BB27FB015527AA27880F991FAA1F69
S1130F80A41710F0A41B83955051B9F7A05DAA33A0
S1130F9008F0A95DA193009779F7B111B19311926B
S1130FA0CB010C94D307DC01FC01672F71917723EB
S1130FB0E1F7329704C07C916D9370836291AE1710
S10D0FC0BF07C8F30895F894FFCFAB
S1130FCA49444C4500090D005461736B5F31005468
S1110FDA61736B5F32005461736B5F33000010
S9030000FC
